S0240000433A2F616C746572612F6C65676F5F70726F6A6563742F626F6172642E7372656378
S21400002004F6FFDE150000DE7A303100150100DE32
S214000030150240DF150340DA150480DA1505C0DA2C
S214000040150600DB150740DB150880DB1509C0DB4D
S2140000503A3131007AD030C04C0000C61E0800C0CD
S2140000603A3131004C0000C61ED200C03A31310091
S214000070FAD130C04C0000C61E1B00C006E60000C9
S214000080740280041447AA943A880990C06D4B0005
S21400009034000402140008423500004074020002D6
S2140000A014442A42150000407402000214462A42F4
S2140000B0150000407402000214432A421500004056
S2140000C07402000214452A42150000403A882900AE
S2140000D080F199000401000534000406141400C6DB
S2140000E0350300C006CC000034000406144000C6E9
S2140000F0370040C20C00A04A26FB3F50FAD01448F6
S2140001004C00805226F83F504C00C04A3AD1124864
S2140001104C00004B7AD012484C00404B370040C28F
S214000120FAD314484C00805226FC3F50CC3F804BFC
S214000130370040C2FAD314484C00805226FC3F5089
S214000140CC3FC04B1E0200601E040068060500007F
S214000150DC3F80734400807306FB3F00DC3FC07BBF
S2140001604400C07B1E0200603A889DAB060100007A
S2140001703AC89DAB1E0200683AC8DFB3060100000D
S2140001803A88DFB3166C0070166B007834000003F4
S214000190145000631668806334000003143C006348
S2140001A01665C0633A882B703A882D782662005808
S2140001B07402000214442A42170040421E5E0048A1
S2140001C07402000214462A42170040421E5A004893
S2140001D01E1400A03A8809A83A880BB080B74B00D6
S2140001E02607001034038004144780943A882700BA
S2140001F03A880990C06D4B0044000005064E00008A
S21400020040B24B00264C0010B4038004144796946A
S2140002104400C0043A880990C06D4B0044000005B5
S214000220064500003A8809A83A880BB000834B00C0
S214000230260200103A881500063000003A8809A801
S2140002403A880BB040884B0026020010440080021B
S214000250062A00003A8809A83A880BB0808D4B0021
S2140002602602001084008002062400003A8809A8AE
S2140002703A880BB0C0924B0026020010C4008002E1
S214000280061E00003A8809A83A880BB000984B0072
S2140002902602001004018002061800003A8809A809
S2140002A03A880BB0409D4B002602001044018002A5
S2140002B0061200003A8809A83A880BB080A24B00C4
S2140002C02602001084018002060C00003A8809A865
S2140002D03A880BB0C0A74B0026020010C40180026B
S2140002E0060600003A8809A83A880BB000AD4B0015
S2140002F026110010040280020600000074020002AC
S21400030014432A42170040424400C0023A98965AC4
S2140003103A70DC4A1E0800707402000214452A4235
S214000320170040423A70DC4A1E0300703AB0D24AC8
S21400033015004042940000A53A8809903400020651
S214000340340002C62D00008CBAD012A01E0400484D
S2140003507402000214472A422601009200534B0002
S2140003602601004804FF3FA5D4FF7F023A881DA857
S2140003707A901C703A881FB0BA921E783A88DD735D
S2140003803A889DC32D0040723A8823703A881FB081
S2140003903A8821B03A921E78BA9120803A88217C19
S2140003A03A8861857A9020803A889F840F00007C86
S2140003B006190000340480041447AC947402000646
S2140003C014442AC644004002150040C2C0BC4B007C
S2140003D034000406140008C6350000C07402000687
S2140003E014432AC6150000C07402000614452AC627
S2140003F0150000C03A88290080F1990034000406F0
S214000400340004C6350000C034000406140008C6D4
S214000410350000C006000000170000DE7A3031000C
S214000420170100DE170240DF170340DA170480DAF0
S2140004301705C0DA170600DB170740DB170880DB56
S2140004401709C0DB040AC0DE04FF7FEF3A0880EF1E
S2140005003420C0060400C0DE3A30F6DED401C0DE79
S2140005103A30F6DE340580060448A4D6F404000615
S214000520046804C6B4028000043AA6103A680010B4
S21400053000000000000000000000000000000000B6
S21400054000000000000000000000000000000000A6
S2140005500000000000000000000000000000000096
S2140005600000000000000000000000000000000086
S2140016C0000000009B3C87DCD201FFDFFFFFFFFF2E
S2140016D0FFFFFFFFFBFF9694FBFFC091000000009A
S2140016E000000000D201FFDFFFFFFFFFFFFFFBFF50
S2140016F0C091000000000000000000000000000094
S2140017000000D201FFDFFFFFFFFFFFFFFBFFC091DE
S21400171000000000000000000000000000000000C4
S2140017200000000000000000000000009B3C87DC7A
S214001730D201FFDFFFFFFFFFFFFFFFFFFBFF9694D7
S214001740FBFFC09100000000000000000000000049
S2140017500000000000000000000000000000000084
S21400176000000000000000000C00FFB720B30000DF
S2140017700000000000000000000000000000000064
S2140017800000000000000000000000000000000054
S2140017900000000000000000000000000000000044
S2140017A00000000000000000000000000000000034
S2140017B00000000000000000000000000000000024
S2140017C00000000000000000000000000000000014
S2140017D00000000000000000000000000000000004
S2140017E000000000000000000000000000000000F4
S2140017F000000000000000000000000000000000E4
S21400180000000000000000000000000000000000D3
S21400181000000000000000000000000000000000C3
S21400182000000000000000000000000000000000B3
S21400183000000000000000000000000000000000A3
S2140018400000000000000000000000000000000093
S2140018500000000000000000000000000000000083
S2140018600000000000000000000000000000000073
S2140018700000000000000000000000000000000063
S2140018800000000000000000000000000000000053
S2140018900000000000000000000000000000000043
S2140018A00000000000000000000000000000000033
S2140018B00000000000000000000000000000000023
S2140018C00000000000000000000000000000000013
S2140018D00000000000000000000000000000000003
S2140018E000000000000000000000000000000000F3
S2140018F000000000000000000000000000000000E3
S21400190000000000000000000000000000000000D2
S21400191000000000000000000000000000000000C2
S21400192000000000000000000000000000000000B2
S21400193000000000000000000000000000000000A2
S21400194000009B3CFFFFFFFFFFFFFFFF20B3D2011D
S214001950FBDFC0910000D201FBDFC0910000BF6535
S214001960FFFFFFFF20B30000D201FBDFC0910000A5
S2140019709B3CFFFFFFFFF6FF00600000BF65FFFF18
S214001980FFFF20B30000D201FBDFC0910000000083
S214001990BF65FFFFFFFFD2FE00380000BF65FFFFF8
S2140019A0FFFFACFD0000000000009B3CFFFFFFFFB8
S2140019B0FFFFFFFF20B3D201FBDFC0910000D20182
S2140019C0FBDFC0913603D6FEDFB6FFFFD2FEBF9523
S2140019D0FFFFF6FF00600000BF65FFFFFFFFACFDE6
S2140019E000000700DF96FFFFDBFEFFDF20B30000EE
S2140019F000000000000000000000000000000000E2
S214001A0000000000000000000000000000000000D1
S214001A1000000000000000000000000000000000C1
S214001A2000000000000000000000000000000000B1
S214001A3000000000000000000000000000000000A1
S214001A400000000000000000000000000000000091
S214001A500000000000000000000000000000000081
S214001A600000000000000000000000000000000071
S214001A700000000000000000000000000000000061
S214001A800000000000000000000000000000000051
S214001A900000000000000000000000000000000041
S214001AA00000000000000000000000000000000031
S214001AB00000000000000000000000000000000021
S214001AC00000000000000000000000000000000011
S214001AD00000000000000000000000000000000001
S214001AE000000000000000000000000000000000F1
S214001AF000000000000000000000000000000000E1
S214001B0000000000000000000000000000000000D0
S214001B1000000000000000000000000000000000C0
S214001B2000000000000000000000000000000000B0
S214001B3000000000000000001C051C051C051C051C
S214001B401C051C050000000000000000000000004E
S214001B500000000000000000000000000000000080
S214001B600000000000000000000000000000000070
S214001B700000000000000000000000000000000060
S214001B800000000000000000000000000000000050
S214001B900000000000000000000000000000000040
S214001BA00000000000000000000000000000000030
S214001BB00000000000000000000000000000000020
S214001BC000000700DB96C0919B3C87DC0000D2013A
S214001BD0FBDFC0910000D201FBDFC0913603F6FFA9
S214001BE00060000000000000D201FBDFC091000092
S214001BF0000000000C00FFB720B33603F6FF0060BD
S214001C00000000000000D201FBDFC09100009B3CFA
S214001C10F6FF00600C00FFB787DC3603F6FF0060B7
S214001C200C00FFB720B3000000000700DB96C09151
S214001C309B3C87DC0000D201FBDFC0910000D20194
S214001C40FBDFC0913603FBFFC0913603FFFF20B3D6
S214001C50D201FFDF20B33603F6FF00600C00FFB7AB
S214001C6020B33603F6FF00603603FFFF20B3000004
S214001C70000000000000000000000000000000005F
S214001C80000000000000000000000000000000004F
S214001C90000000000000000000000000000000003F
S214001CA0000000000000000000000000000000002F
S214001CB0000000000000000000000000000000001F
S214001CC0000000000000000000000000000000000F
S214001CD000000000000000000000000000000000FF
S214001CE000000000000000000000000000000000EF
S214001CF000000000000000000000000000000000DF
S214001D0000000000000000000000000000000000CE
S214001D1000000000000000000000000000000000BE
S214001D2000000000000000000000000000000000AE
S214001D3000000000000000000000E4E8E4E8E4E83A
S214001D40000000000000000000000000000000008E
S214001D50000000000000000000000000000000007E
S214001D60000000000000000000000000000000006E
S214001D70000000000000000000000000000000005E
S214001D80000000000000000000000000000000004E
S214001D90000000000000000000000000000000003E
S214001DA0000000000000000000000000000000002E
S214001DB0000000001C051C051C051C051C051C0558
S214001DC01C051C051C051C0500000000000000008A
S214001DD000000000000000000000000000000000FE
S214001DE000000000000000000000000000000000EE
S214001DF000000000000000000000000000000000DE
S214001E0000000000000000000000000000000000CD
S214001E1000000000000000000000000000000000BD
S214001E2000000000000000000000000000000000AD
S214001E30000000000000000000000000000000009D
S214001E400000DF96FFFFFFFFFFFFFBFFC091D20100
S214001E50FBDFC0910000D201FBDFC0919B3CD2FEAD
S214001E600038000000000000D201FBDFC091000037
S214001E703603FFFFFFFFFFFF87DC9B3CD2FE0038E8
S214001E80000000000000D201FBDFC0910000BF652B
S214001E90D2FE00380700DF9687DC9B3CFFFFFFFF83
S214001EA0FFFFFFFF87DC00000700DF96FFFFFFFF56
S214001EB0FFFFFBFFC091D201FBDFC0910000D20103
S214001EC0FBDFC0913603F6FF0060D201FBDFC09156
S214001ED00C00FFB720B39B3CFFFFFFFFFFFFFFFF99
S214001EE087DC9B3CD2FE00380C00FFB720B3000016
S214001EF000000000000000000000000000000000DD
S214001F0000000000000000000000000000000000CC
S214001F1000000000000000000000000000000000BC
S214001F2000000000000000000000000000000000AC
S214001F30000000000000000000000000000000009C
S214001F40000000000000000000000000000000008C
S214001F50000000000000000000000000000000007C
S214001F60000000000000000000000000000000006C
S214001F70000000000000000000000000000000005C
S214001F80000000000000000000000000000000004C
S214001F90000000000000000000000000000000003C
S214001FA0000000000000000000000000000000002C
S214001FB00000000000000000E4E8E4E8E4E8E4E8EC
S214001FC0E4E8000000000000000000000000000040
S214001FD000000000000000000000000000000000FC
S214001FE000000000000000000000000000000000EC
S214001FF000000000000000000000000000000000DC
S21400200000000000000000000000000000000000CB
S21400201000000000000000000000000000000000BB
S21400202000000000000000000000000000000000AB
S2140020301C051C051C051C051C051C051C051C0593
S2140020401C051C051C051C051C051C0500000000C5
S214002050000000000000000000000000000000007B
S214002060000000000000000000000000000000006B
S214002070000000000000000000000000000000005B
S214002080000000000000000000000000000000004B
S214002090000000000000000000000000000000003B
S2140020A0000000000000000000000000000000002B
S2140020B0000000000000000000000000000000001B
S2140020C00000D201D2DE0738DB96C0910000D201B4
S2140020D0FBDFC0910000D201FBDFC0913603F6FFA4
S2140020E00060D20120930000D201FBDFC091000007
S2140020F0BF65ACFD0C00FFB787DC3603F6FF00605B
S214002100D20120930000D201FBDFC09100009B3C6F
S214002110F6FF00600C00FFB720B33603F6FF006042
S21400212000000000000000000000D201D2DE0738E8
S214002130DB96C0910000D201FBDFC0910000D20107
S214002140FBDFC0913603F6FF0060D201FBDFC091D3
S2140021500C00FFB720B33603F6FF00600000000057
S21400216000009B3CF6FF00603603FFFF20B3000034
S214002170000000000000000000000000000000005A
S214002180000000000000000000000000000000004A
S214002190000000000000000000000000000000003A
S2140021A0000000000000000000000000000000002A
S2140021B0000000000000000000000000000000001A
S2140021C0000000000000000000000000000000000A
S2140021D000000000000000000000000000000000FA
S2140021E000000000000000000000000000000000EA
S2140021F000000000000000000000000000000000DA
S21400220000000000000000000000000000000000C9
S21400221000000000000000000000000000000000B9
S21400222000000000000000000000000000000000A9
S2140022300000000000000000E4E8E4E8E4E8E4E869
S214002240E4E80000000000000000000000000000BD
S2140022500000000000000000000000000000000079
S2140022600000000000000000000000000000000069
S2140022700000000000000000000000000000000059
S2140022800000000000000000000000000000000049
S2140022900000000000000000000000000000000039
S2140022A000000000000000000000000000001C0508
S2140022B01C051C051C051C051C051C051C051C0511
S2140022C01C051C051C051C051C051C051C05000022
S2140022D000000000000000000000000000000000F9
S2140022E000000000000000000000000000000000E9
S2140022F000000000000000000000000000000000D9
S21400230000000000000000000000000000000000C8
S21400231000000000000000000000000000000000B8
S21400232000000000000000000000000000000000A8
S2140023300000000000000000000000000000000098
S21400234000003603D2FE0C38FBB7C0910000D20165
S214002350FBDFC0910000D201FBDFC0910700DF96D3
S214002360FFFFF6FF00600000D201FBDFC091000017
S2140023703603FFFFFBFFDFDE87DC0700DF96FFFF8D
S214002380F6FF00600000D201FBDFC09100000700EE
S214002390DF96FFFFFFFFACFD00000000BF65FFFFFC
S2140023A0FFFFFBFFC091000000003603D2FE0C3892
S2140023B0FBB7C0910000D201FBDFC0910000D20144
S2140023C0FBDFC0913603F6FF0060D201FBDFC09151
S2140023D00C00FFB720B30000BF65FFFFFFFFFBFF49
S2140023E0C0910700DF96FFFFD6FEDFB620B30000E1
S2140023F000000000000000000000000000000000D8
S21400240000000000000000000000000000000000C7
S21400241000000000000000000000000000000000B7
S21400242000000000000000000000000000000000A7
S2140024300000000000000000000000000000000097
S2140024400000000000000000000000000000000087
S2140024500000000000000000000000000000000077
S2140024600000000000000000000000000000000067
S2140024700000000000000000000000000000000057
S2140024800000000000000000000000000000000047
S2140024900000000000000000000000000000000037
S2140024A00000000000000000000000000000000027
S2140024B00000000000000000E4E8E4E8E4E8E4E8E7
S2140024C0E4E800000000000000000000000000003B
S2140024D000000000000000000000000000000000F7
S2140024E000000000000000000000000000000000E7
S2140024F000000000000000000000000000000000D7
S21400250000000000000000000000000000000000C6
S21400251000000000000000000000000000000000B6
S2140025200000000000000000000000001C051C0564
S2140025301C051C051C051C051C051C051C051C058E
S2140025401C051C051C051C051C051C051C051C057E
S2140025500000000000000000000000000000000076
S2140025600000000000000000000000000000000066
S2140025700000000000000000000000000000000056
S2140025800000000000000000000000000000000046
S2140025900000000000000000000000000000000036
S2140025A00000000000000000000000000000000026
S2140025B00000000000000000000000000000000016
S2140025C00000000000000000000000000000000006
S2140025D000000000000000000000000000000000F6
S2140025E000000000000000000000000000000000E6
S2140025F000000000000000000000000000000000D6
S21400260000000000000000000000000000000000C5
S21400261000000000000000000000000000000000B5
S21400262000000000000000000000000000000000A5
S2140026300000000000000000000000000000000095
S2140026400000000000000000000000000000000085
S2140026500000000000000000000000000000000075
S2140026600000000000000000000000000000000065
S2140026700000000000000000000000000000000055
S2140026800000000000000000000000000000000045
S2140026900000000000000000000000000000000035
S2140026A00000000000000000000000000000000025
S2140026B00000000000000000000000000000000015
S2140026C00000000000000000000000000000000005
S2140026D000000000000000000000000000000000F5
S2140026E000000000000000000000000000000000E5
S2140026F000000000000000000000000000000000D5
S21400270000000000000000000000000000000000C4
S21400271000000000000000000000000000000000B4
S21400272000000000000000000000000000000000A4
S2140027300000000000000000E4E8E4E8E4E8E4E864
S214002740E4E80000000000000000000000000000B8
S2140027500000000000000000000000000000000074
S2140027600000000000000000000000000000000064
S2140027700000000000000000000000000000000054
S2140027800000000000000000000000000000000044
S2140027900000000000000000000000000000000034
S2140027A0000000000000000000001C051C051C05C1
S2140027B01C051C051C051C051C050000000000006F
S2140027C000001C051C051C051C051C051C051C051D
S2140027D01C050000000000000000000000000000D3
S2140027E000000000000000000000000000000000E4
S2140027F000000000000000000000000000000000D4
S21400280000000000000000000000000000000000C3
S21400281000000000000000000000000000000000B3
S21400282000000000000000000000000000000000A3
S2140028300000000000000000000000000000000093
S2140028400000000000000000000000000000000083
S2140028500000000000000000000000000000000073
S2140028600000000000000000000000000000000063
S2140028700000000000000000000000000000000053
S2140028800000000000000000000000000000000043
S2140028900000000000000000000000000000000033
S2140028A00000000000000000000000000000000023
S2140028B00000000000000000000000000000000013
S2140028C00000000000000000000000000000000003
S2140028D000000000000000000000000000000000F3
S2140028E000000000000000000000000000000000E3
S2140028F000000000000000000000000000000000D3
S21400290000000000000000000000000000000000C2
S21400291000000000000000000000000000000000B2
S21400292000000000000000000000000000000000A2
S2140029300000000000000000000000000000000092
S2140029400000000000000000000000000000000082
S2140029500000000000000000000000000000000072
S2140029600000000000000000000000000000000062
S2140029700000000000000000000000000000000052
S2140029800000000000000000000000000000000042
S2140029900000000000000000000000000000000032
S2140029A00000000000000000000000000000000022
S2140029B00000000000000000E4E8E4E8E4E8E4E8E2
S2140029C0E4E8000000000000000000000000000036
S2140029D000000000000000000000000000000000F2
S2140029E000000000000000000000000000000000E2
S2140029F000000000000000000000000000000000D2
S214002A0000000000000000000000000000000000C1
S214002A1000000000000000000000000000000000B1
S214002A20000000000000000000001C051C051C053E
S214002A301C051C051C05000000000000000000002E
S214002A400000000000001C051C051C051C051C05DC
S214002A501C05000000000000000000000000000050
S214002A600000000000000000000000000000000061
S214002A700000000000000000000000000000000051
S214002A800000000000000000000000000000000041
S214002A900000000000000000000000000000000031
S214002AA00000000000000000000000000000000021
S214002AB00000000000000000000000000000000011
S214002AC00000000000000000000000000000000001
S214002AD000000000000000000000000000000000F1
S214002AE000000000000000000000000000000000E1
S214002AF000000000000000000000000000000000D1
S214002B0000000000000000000000000000000000C0
S214002B1000000000000000000000000000000000B0
S214002B2000000000000000000000000000000000A0
S214002B300000000000000000000000000000000090
S214002B400000000000000000000000000000000080
S214002B500000000000000000000000000000000070
S214002B600000000000000000000000000000000060
S214002B700000000000000000000000000000000050
S214002B800000000000000000000000000000000040
S214002B900000000000000000000000000000000030
S214002BA00000000000000000000000000000000020
S214002BB00000000000000000000000000000000010
S214002BC00000000000000000000000000000000000
S214002BD000000000000000000000000000000000F0
S214002BE000000000000000000000000000000000E0
S214002BF000000000000000000000000000000000D0
S214002C0000000000000000000000000000000000BF
S214002C1000000000000000000000000000000000AF
S214002C20000000000000000000000000000000009F
S214002C300000000000000000E4E8E4E8E4E8E4E85F
S214002C40E4E80000000000000000000000000000B3
S214002C50000000000000000000000000000000006F
S214002C60000000000000000000000000000000005F
S214002C70000000000000000000000000000000004F
S214002C80000000000000000000000000000000003F
S214002C90000000000000000000000000000000002F
S214002CA000000000000000001C051C051C051C059B
S214002CB01C051C05000000000000000000000000CD
S214002CC000000000000000001C051C051C051C057B
S214002CD01C051C05000000000000000000000000AD
S214002CE000000000000000000000000000000000DF
S214002CF000000000000000000000000000000000CF
S214002D0000000000000000000000000000000000BE
S214002D1000000000000000000000000000000000AE
S214002D20000000000000000000000000000000009E
S214002D30000000000000000000000000000000008E
S214002D40000000000000000000000000000000007E
S214002D50000000000000000000000000000000006E
S214002D60000000000000000000000000000000005E
S214002D70000000000000000000000000000000004E
S214002D80000000000000000000000000000000003E
S214002D90000000000000000000000000000000002E
S214002DA0000000000000000000000000000000001E
S214002DB0000000000000000000000000000000000E
S214002DC000000000000000000000000000000000FE
S214002DD000000000000000000000000000000000EE
S214002DE000000000000000000000000000000000DE
S214002DF000000000000000000000000000000000CE
S214002E0000000000000000000000000000000000BD
S214002E1000000000000000000000000000000000AD
S214002E20000000000000000000000000000000009D
S214002E30000000000000000000000000000000008D
S214002E40000000000000000000000000000000007D
S214002E50000000000000000000000000000000006D
S214002E6000000000000000000000000000009B3C86
S214002E7087DCD201D2DED239FFDFFFFF20B30000AD
S214002E800000D201FFDFFBFFC09100000000000041
S214002E90000000000000000000000000000000002D
S214002EA0000000000000000000000000000000001D
S214002EB00000000000000000E4E8E4E8E4E8E4E8DD
S214002EC0E4E8000000000000000000000000000031
S214002ED000000000000000000000000000000000ED
S214002EE000000000000000000000000000000000DD
S214002EF000009B3C87DCD201D2DEBF95D2FE0038B4
S214002F000000BF65D2FE0038000000000000000090
S214002F1000000000000000000000000000000000AC
S214002F2000000000000000001C051C051C051C0518
S214002F301C0500000000000000000000000000006B
S214002F40000000000000000000001C051C051C0519
S214002F501C051C050000000000000000000000002A
S214002F60000000000000000000000000000000005C
S214002F70000000000000000000000000000000004C
S214002F80000000000000000000000000000000003C
S214002F90000000000000000000000000000000002C
S214002FA0000000000000000000000000000000001C
S214002FB0000000000000000000000000000000000C
S214002FC000000000000000000000000000000000FC
S214002FD000000000000000000000000000000000EC
S214002FE000000000000000000000000000000000DC
S214002FF000000000000000000000000000000000CC
S21400300000000000000000000000000000000000BB
S21400301000000000000000000000000000000000AB
S214003020000000000000000000000000000000009B
S214003030000000000000000000000000000000008B
S214003040000000000000000000000000000000007B
S214003050000000000000000000000000000000006B
S214003060000000000000000000000000000000005B
S214003070000000000000000000000000000000004B
S214003080000000000000000000000000000000003B
S214003090000000000000000000000000000000002B
S2140030A0000000000000000000000000000000001B
S2140030B0000000000000000000000000000000000B
S2140030C000000000000000000000000000000000FB
S2140030D000000000000000000000000000000000EB
S2140030E00000000000000000000000000000BF65B7
S2140030F020B33603ACFDD201FBDFDFDEACFD000003
S21400310000009B3CDBFEFBDFC091000000000000DF
S21400311000000000000000000000000000000000AA
S214003120000000000000000000000000000000009A
S2140031300000000000000000E4E8E4E8E4E8E4E85A
S214003140E4E80000000000000000000000000000AE
S214003150000000000000000000000000000000006A
S214003160000000000000000000000000000000005A
S2140031700000BF6520B33603ACFDD201FFDF20B3ED
S214003180D201FFDF20B300000000000000000000B6
S214003190000000000000000000000000000000002A
S2140031A00000000000001C051C051C051C051C0575
S2140031B01C050000000000000000000000000000E9
S2140031C0000000000000000000001C051C051C0597
S2140031D01C051C051C050000000000000000000087
S2140031E000000000000000000000000000000000DA
S2140031F000000000000000000000000000000000CA
S21400320000000000000000000000000000000000B9
S21400321000000000000000000000000000000000A9
S2140032200000000000000000000000000000000099
S2140032300000000000000000000000000000000089
S2140032400000000000000000000000000000000079
S2140032500000000000000000000000000000000069
S2140032600000000000000000000000000000000059
S2140032700000000000000000000000000000000049
S2140032800000000000000000000000000000000039
S2140032900000000000000000000000000000000029
S2140032A00000000000000000000000000000000019
S2140032B00000000000000000000000000000000009
S2140032C000000000000000000000000000000000F9
S2140032D000000000000000000000000000000000E9
S2140032E000000000000000000000000000000000D9
S2140032F000000000000000000000000000000000C9
S21400330000000000000000000000000000000000B8
S21400331000000000000000000000000000000000A8
S2140033200000000000000000000000000000000098
S2140033300000000000000000000000000000000088
S2140033400000000000000000000000000000000078
S2140033500000000000000000000000000000000068
S2140033600000000000000000000000009B3CFFFF83
S214003370FFFFFFFFFFFF92B4FBDF9694F6FF0060AF
S2140033800C00FFB792B4FBDFC0910000BF65FFFFE3
S214003390FFFFACFD00000000000000000000000081
S2140033A000000000E4E8E4E8E4E8E4E8E4E8E4E850
S2140033B0E4E8E4E8E4E8E4E8E4E8E4E8E4E8E4E8A8
S2140033C0E4E8E4E8E4E8E4E8E4E8E4E8E4E8E4E898
S2140033D0E4E8E4E8E4E80000000000000000000084
S2140033E000000000000000000000000000000000D8
S2140033F09B3CFFFFFFFFFFFFFFFF20B3BF65D2FE32
S214003400BF95D2FE00380000BF65FFFFFFFFD2FE6B
S21400341000383603F6FF00600C00FFB720B300004C
S2140034200000000000001C051C051C051C051C05F2
S2140034300000000000000000000000000000000087
S2140034400000000000000000000000001C051C0535
S2140034501C051C051C050000000000000000000004
S2140034600000000000000000000000000000000057
S2140034700000000000000000000000000000000047
S2140034800000000000000000000000000000000037
S2140034900000000000000000000000000000000027
S2140034A00000000000000000000000000000000017
S2140034B00000000000000000000000000000000007
S2140034C000000000000000000000000000000000F7
S2140034D000000000000000000000000000000000E7
S2140034E000000000000000000000000000000000D7
S2140034F000000000000000000000000000000000C7
S21400350000000000000000000000000000000000B6
S21400351000000000000000000000000000000000A6
S2140035200000000000000000000000000000000096
S2140035300000000000000000000000000000000086
S2140035400000000000000000000000000000000076
S2140035500000000000000000000000000000000066
S2140035600000000000000000000000000000000056
S2140035700000000000000000000000000000000046
S2140035800000000000000000000000000000000036
S2140035900000000000000000000000000000000026
S2140035A00000000000000000000000000000000016
S2140035B00000000000000000000000000000000006
S2140035C000000000000000000000000000000000F6
S2140035D000000000000000000000000000000000E6
S2140035E00000000000000000000000000700DB965E
S2140035F0C0919B3C87DCD201FBDFC791DF9687DC5E
S2140036003603D2FED239FBDFC0913603F6FF0060E8
S2140036100C00FFB720B30000000000000000000010
S2140036200000E4E8E4E8E4E8E4E8E4E8E4E8E4E801
S214003630E4E8E4E8E4E8E4E8E4E8E4E8E4E8E4E825
S214003640E4E8E4E8E4E8E4E8E4E8E4E8E4E8E4E815
S214003650E4E8E4E8E4E8E4E8000000000000000035
S2140036600000000000000000000000000000000055
S2140036700700DB96C0919B3C87DC0000D201FFDF91
S214003680FBFFC09100009B3CF6FF00600C00FFB7FC
S21400369087DC3603F6FF00600C00FFB720B300009F
S2140036A00000000000001C051C051C051C051C0570
S2140036B00000000000000000000000000000000005
S2140036C00000000000000000000000001C051C05B3
S2140036D01C051C051C050000000000000000000082
S2140036E000000000000000000000000000000000D5
S2140036F000000000000000000000000000000000C5
S21400370000000000000000000000000000000000B4
S21400371000000000000000000000000000000000A4
S2140037200000000000000000000000000000000094
S2140037300000000000000000000000000000000084
S2140037400000000000000000000000000000000074
S2140037500000000000000000000000000000000064
S2140037600000000000000000000000000000000054
S2140037700000000000000000000000000000000044
S2140037800000000000000000000000000000000034
S2140037900000000000000000000000000000000024
S2140037A00000000000000000000000000000000014
S2140037B00000000000000000000000000000000004
S2140037C000000000000000000000000000000000F4
S2140037D000000000000000000000000000000000E4
S2140037E000000000000000000000000000000000D4
S2140037F000000000000000000000000000000000C4
S21400380000000000000000000000000000000000B3
S21400381000000000000000000000000000000000A3
S2140038200000000000000000000000000000000093
S2140038300000000000000000000000000000000083
S2140038400000000000000000000000000000000073
S2140038500000000000000000000000000000000063
S214003860000000000000000000000000DF96FFFFE0
S214003870FFFFFFFFFBFF3293FBDFC0919B3CD6FEB2
S214003880DFB687DCD201FBDFC0919B3CFFFFFFFF6A
S214003890FFFFFFFF87DC00000000000000000000C4
S2140038A00000E4E8E4E8E4E8E4E8E4E8E4E8E4E87F
S2140038B0E4E8E4E8E4E8E4E8E4E8E4E8E4E8E4E8A3
S2140038C0E4E8E4E8E4E8E4E8E4E8E4E8E4E8E4E893
S2140038D0E4E8E4E8E4E8E4E80000000000000000B3
S2140038E000000000000000000000000000000000D3
S2140038F0DF96FFFFFFFFFFFFFBFFC0910000BF65E5
S214003900D2FE00380000BF65D2FE00380700DF9602
S21400391087DC3603F6FF00600C00FFB720B300001C
S2140039200000000000001C051C051C051C051C05ED
S2140039300000000000000000000000000000000082
S2140039400000000000000000000000001C051C0530
S2140039501C051C051C0500000000000000000000FF
S2140039600000000000000000000000000000000052
S2140039700000000000000000000000000000000042
S2140039800000000000000000000000000000000032
S2140039900000000000000000000000000000000022
S2140039A00000000000000000000000000000000012
S2140039B00000000000000000000000000000000002
S2140039C000000000000000000000000000000000F2
S2140039D000000000000000000000000000000000E2
S2140039E000000000000000000000000000000000D2
S2140039F000000000000000000000000000000000C2
S214003A0000000000000000000000000000000000B1
S214003A1000000000000000000000000000000000A1
S214003A200000000000000000000000000000000091
S214003A300000000000000000000000000000000081
S214003A400000000000000000000000000000000071
S214003A500000000000000000000000000000000061
S214003A600000000000000000000000000000000051
S214003A700000000000000000000000000000000041
S214003A800000000000000000000000000000000031
S214003A900000000000000000000000000000000021
S214003AA00000000000000000000000000000000011
S214003AB00000000000000000000000000000000001
S214003AC000000000000000000000000000000000F1
S214003AD000000000000000000000000000000000E1
S214003AE0000000000000000000000000D201D2DE4E
S214003AF00738DB96C091D201FBDFC091D201FFDF11
S214003B00FBFFC091D201FBDFC0913603F6FF0060D9
S214003B1000000000000000000000000000000000A0
S214003B200000E4E8E4E8E4E8E4E8E4E8E4E8E4E8FC
S214003B30E4E8E4E8E4E8E4E8E4E8E4E8E4E8E4E820
S214003B40E4E8E4E8E4E8E4E8E4E8E4E8E4E8E4E810
S214003B50E4E8E4E8E4E8E4E8000000000000000030
S214003B600000000000000000000000000000000050
S214003B70D201D2DE0738DB96C09100000000BF6598
S214003B80D2FE003800009B3CF6FF00600C00FFB73A
S214003B9020B33603FBFFC0913603FFFF20B30000BF
S214003BA00000000000001C051C051C051C051C056B
S214003BB00000000000000000000000000000000000
S214003BC00000000000000000000000001C051C05AE
S214003BD01C051C051C05000000000000000000007D
S214003BE000000000000000000000000000000000D0
S214003BF000000000000000000000000000000000C0
S214003C0000000000000000000000000000000000AF
S214003C10000000000000000000000000000000009F
S214003C20000000000000000000000000000000008F
S214003C30000000000000000000000000000000007F
S214003C40000000000000000000000000000000006F
S214003C50000000000000000000000000000000005F
S214003C60000000000000000000000000000000004F
S214003C70000000000000000000000000000000003F
S214003C80000000000000000000000000000000002F
S214003C90000000000000000000000000000000001F
S214003CA0000000000000000000000000000000000F
S214003CB000000000000000000000000000000000FF
S214003CC000000000000000000000000000000000EF
S214003CD000000000000000000000000000000000DF
S214003CE000000000000000000000000000000000CF
S214003CF000000000000000000000000000000000BF
S214003D0000000000000000000000000000000000AE
S214003D10000000000000000000000000000000009E
S214003D20000000000000000000000000000000008E
S214003D30000000000000000000000000000000007E
S214003D40000000000000000000000000000000006E
S214003D50000000000000000000000000000000005E
S214003D600000000000000000000000003603D2FE45
S214003D700C38FBB7C091D201FBDFC0910700DF967D
S214003D80D2FE0038D201FBDFC0910000BF65FFFF06
S214003D90FFFFFBFFC09100000000000000000000D5
S214003DA000000000E4E8E4E8E4E8E4E8E4E8E4E846
S214003DB0E4E8E4E8E4E8E4E8E4E8E4E8E4E8E4E89E
S214003DC0E4E8E4E8E4E8E4E8E4E8E4E8E4E8E4E88E
S214003DD0E4E8E4E8E4E8000000000000000000007A
S214003DE000000000000000000000000000000000CE
S214003DF03603D2FE0C38FBB7C09100000000BF654A
S214003E00D2FE003800000700DF96FFFFFFFFACFD84
S214003E1000000700DF96FFFFD6FEDFB620B30000E7
S214003E200000000000001C051C051C051C051C05E8
S214003E30000000000000000000000000000000007D
S214003E400000000000000000000000001C051C052B
S214003E501C051C051C0500000000000000000000FA
S214003E60000000000000000000000000000000004D
S214003E70000000000000000000000000000000003D
S214003E80000000000000000000000000000000002D
S214003E90000000000000000000000000000000001D
S214003EA0000000000000000000000000000000000D
S214003EB000000000000000000000000000000000FD
S214003EC000000000000000000000000000000000ED
S214003ED000000000000000000000000000000000DD
S214003EE000000000000000000000000000000000CD
S214003EF000000000000000000000000000000000BD
S214003F0000000000000000000000000000000000AC
S214003F10000000000000000000000000000000009C
S214003F20000000000000000000000000000000008C
S214003F30000000000000000000000000000000007C
S214003F40000000000000000000000000000000006C
S214003F50000000000000000000000000000000005C
S214003F60000000000000000000000000000000004C
S214003F70000000000000000000000000000000003C
S214003F80000000000000000000000000000000002C
S214003F90000000000000000000000000000000001C
S214003FA0000000000000000000000000000000000C
S214003FB000000000000000000000000000000000FC
S214003FC000000000000000000000000000000000EC
S214003FD000000000000000000000000000000000DC
S214003FE000000000000000000000000000000000CC
S214003FF000000000000000000000000000000000BC
S21400400000000000000000000000000000000000AB
S214004010000000000000000000000000000000009B
S214004020000000000000000000000000000000008B
S2140040300000000000000000E4E8E4E8E4E8E4E84B
S214004040E4E800000000000000000000000000009F
S214004050000000000000000000000000000000005B
S214004060000000000000000000000000000000004B
S214004070000000000000000000000000000000003B
S214004080000000000000000000000000000000002B
S214004090000000000000000000000000000000001B
S2140040A00000000000001C051C051C051C051C0566
S2140040B01C050000000000000000000000000000DA
S2140040C0000000000000000000001C051C051C0588
S2140040D01C051C051C050000000000000000000078
S2140040E000000000000000000000000000000000CB
S2140040F000000000000000000000000000000000BB
S21400410000000000000000000000000000000000AA
S214004110000000000000000000000000000000009A
S214004120000000000000000000000000000000008A
S214004130000000000000000000000000000000007A
S214004140000000000000000000000000000000006A
S214004150000000000000000000000000000000005A
S214004160000000000000000000000000000000004A
S214004170000000000000000000000000000000003A
S214004180000000000000000000000000000000002A
S214004190000000000000000000000000000000001A
S2140041A0000000000000000000000000000000000A
S2140041B000000000000000000000000000000000FA
S2140041C000000000000000000000000000000000EA
S2140041D000000000000000000000000000000000DA
S2140041E000000000000000000000000000000000CA
S2140041F000000000000000000000000000000000BA
S21400420000000000000000000000000000000000A9
S2140042100000000000000000000000000000000099
S2140042200000000000000000000000000000000089
S2140042300000000000000000000000000000000079
S2140042400000000000000000000000000000000069
S2140042500000000000000000000000000000000059
S2140042600000000000000000000000000000000049
S2140042700000000000000000000000000000000039
S2140042800000000000000000000000000000000029
S2140042900000000000000000000000000000000019
S2140042A00000000000000000000000000000000009
S2140042B00000000000000000E4E8E4E8E4E8E4E8C9
S2140042C0E4E800000000000000000000000000001D
S2140042D000000000000000000000000000000000D9
S2140042E000000000000000000000000000000000C9
S2140042F000000000000000000000000000000000B9
S21400430000000000000000000000000000000000A8
S2140043100000000000000000000000000000000098
S21400432000000000000000001C051C051C051C0504
S2140043301C05000000000000000000000000000057
S214004340000000000000000000001C051C051C0505
S2140043501C051C0500000000000000000000000016
S2140043600000000000000000000000000000000048
S2140043700000000000000000000000000000000038
S2140043800000000000000000000000000000000028
S2140043900000000000000000000000000000000018
S2140043A00000000000000000000000000000000008
S2140043B000000000000000000000000000000000F8
S2140043C000000000000000000000000000000000E8
S2140043D000000000000000000000000000000000D8
S2140043E000000000000000000000000000000000C8
S2140043F000000000000000000000000000000000B8
S21400440000000000000000000000000000000000A7
S2140044100000000000000000000000000000000097
S2140044200000000000000000000000000000000087
S2140044300000000000000000000000000000000077
S2140044400000000000000000000000000000000067
S2140044500000000000000000000000000000000057
S2140044600000000000000000000000000000000047
S2140044700000000000000000000000000000000037
S2140044800000000000000000000000000000000027
S2140044900000000000000000000000000000000017
S2140044A00000000000000000000000000000000007
S2140044B000000000000000000000000000000000F7
S2140044C000000000000000000000000000000000E7
S2140044D000000000000000000000000000000000D7
S2140044E000000000000000000000000000000000C7
S2140044F000000000000000000000000000000000B7
S21400450000000000000000000000000000000000A6
S2140045100000000000000000000000000000000096
S2140045200000000000000000000000000000000086
S2140045300000000000000000E4E8E4E8E4E8E4E846
S214004540E4E800000000000000000000000000009A
S2140045500000000000000000000000000000000056
S2140045600000000000000000000000000000000046
S2140045700000000000000000000000000000000036
S2140045800000000000000000000000000000000026
S2140045900000000000000000000000000000000016
S2140045A000000000000000001C051C051C051C0582
S2140045B01C051C05000000000000000000000000B4
S2140045C000000000000000001C051C051C051C0562
S2140045D01C051C0500000000000000000000000094
S2140045E000000000000000000000000000000000C6
S2140045F000000000000000000000000000000000B6
S21400460000000000000000000000000000000000A5
S2140046100000000000000000000000000000000095
S2140046200000000000000000000000000000000085
S2140046300000000000000000000000000000000075
S2140046400000000000000000000000000000000065
S2140046500000000000000000000000000000000055
S2140046600000000000000000000000000000000045
S2140046700000000000000000000000000000000035
S2140046800000000000000000000000000000000025
S2140046900000000000000000000000000000000015
S2140046A00000000000000000000000000000000005
S2140046B000000000000000000000000000000000F5
S2140046C000000000000000000000000000000000E5
S2140046D000000000000000000000000000000000D5
S2140046E000000000000000000000000000000000C5
S2140046F000000000000000000000000000000000B5
S21400470000000000000000000000000000000000A4
S2140047100000000000000000000000000000000094
S2140047200000000000000000000000000000000084
S2140047300000000000000000000000000000000074
S2140047400000000000000000000000000000000064
S2140047500000000000000000000000000000000054
S2140047600000000000000000000000000000000044
S2140047700000000000000000000000000000000034
S2140047800000000000000000000000000000000024
S2140047900000000000000000000000000000000014
S2140047A00000000000000000000000000000000004
S2140047B00000000000000000E4E8E4E8E4E8E4E8C4
S2140047C0E4E8000000000000000000000000000018
S2140047D000000000000000000000000000000000D4
S2140047E000000000000000000000000000000000C4
S2140047F000000000000000000000000000000000B4
S21400480000000000000000000000000000000000A3
S2140048100000000000000000000000000000000093
S214004820000000000000000000001C051C051C0520
S2140048301C051C051C050000000000000000000010
S2140048400000000000001C051C051C051C051C05BE
S2140048501C05000000000000000000000000000032
S2140048600000000000000000000000000000000043
S2140048700000000000000000000000000000000033
S2140048800000000000000000000000000000000023
S2140048900000000000000000000000000000000013
S2140048A00000000000000000000000000000000003
S2140048B000000000000000000000000000000000F3
S2140048C000000000000000000000000000000000E3
S2140048D000000000000000000000000000000000D3
S2140048E000000000000000000000000000000000C3
S2140048F000000000000000000000000000000000B3
S21400490000000000000000000000000000000000A2
S2140049100000000000000000000000000000000092
S2140049200000000000000000000000000000000082
S2140049300000000000000000000000000000000072
S2140049400000000000000000000000000000000062
S2140049500000000000000000000000000000000052
S2140049600000000000000000000000000000000042
S2140049700000000000000000000000000000000032
S2140049800000000000000000000000000000000022
S2140049900000000000000000000000000000000012
S2140049A00000000000000000000000000000000002
S2140049B000000000000000000000000000000000F2
S2140049C000000000000000000000000000000000E2
S2140049D000000000000000000000000000000000D2
S2140049E000000000000000000000000000000000C2
S2140049F000000000000000000000000000000000B2
S214004A0000000000000000000000000000000000A1
S214004A100000000000000000000000000000000091
S214004A200000000000000000000000000000000081
S214004A300000000000000000E4E8E4E8E4E8E4E841
S214004A40E4E8000000000000000000000000000095
S214004A500000000000000000000000000000000051
S214004A600000000000000000000000000000000041
S214004A700000000000000000000000000000000031
S214004A800000000000000000000000000000000021
S214004A900000000000000000000000000000000011
S214004AA0000000000000000000001C051C051C059E
S214004AB01C051C051C051C0500000000000000006D
S214004AC0000000001C051C051C051C051C051C051B
S214004AD01C050000000000000000000000000000B0
S214004AE000000000000000000000000000000000C1
S214004AF000000000000000000000000000000000B1
S214004B0000000000000000000000000000000000A0
S214004B100000000000000000000000000000000090
S214004B200000000000000000000000000000000080
S214004B300000000000000000000000000000000070
S214004B400000000000000000000000000000000060
S214004B500000000000000000000000000000000050
S214004B600000000000000000000000000000000040
S214004B700000000000000000000000000000000030
S214004B800000000000000000000000000000000020
S214004B900000000000000000000000000000000010
S214004BA00000000000000000000000000000000000
S214004BB000000000000000000000000000000000F0
S214004BC000000000000000000000000000000000E0
S214004BD000000000000000000000000000000000D0
S214004BE000000000000000000000000000000000C0
S214004BF000000000000000000000000000000000B0
S214004C00000000000000000000000000000000009F
S214004C10000000000000000000000000000000008F
S214004C20000000000000000000000000000000007F
S214004C30000000000000000000000000000000006F
S214004C40000000000000000000000000000000005F
S214004C50000000000000000000000000000000004F
S214004C60000000000000000000000000000000003F
S214004C70000000000000000000000000000000002F
S214004C80000000000000000000000000000000001F
S214004C90000000000000000000000000000000000F
S214004CA000000000000000000000000000000000FF
S214004CB00000000000000000E4E8E4E8E4E8E4E8BF
S214004CC0E4E8000000000000000000000000000013
S214004CD000000000000000000000000000000000CF
S214004CE000000000000000000000000000000000BF
S214004CF000000000000000000000000000000000AF
S214004D00000000000000000000000000000000009E
S214004D10000000000000000000000000000000008E
S214004D200000000000000000000000001C051C053C
S214004D301C051C051C051C051C051C051C051C0566
S214004D401C051C051C051C051C051C051C051C0556
S214004D50000000000000000000000000000000004E
S214004D60000000000000000000000000000000003E
S214004D70000000000000000000000000000000002E
S214004D80000000000000000000000000000000001E
S214004D90000000000000000000000000000000000E
S214004DA000000000000000000000000000000000FE
S214004DB000000000000000000000000000000000EE
S214004DC000000000000000000000000000000000DE
S214004DD000000000000000000000000000000000CE
S214004DE000000000000000000000000000000000BE
S214004DF000000000000000000000000000000000AE
S214004E00000000000000000000000000000000009D
S214004E10000000000000000000000000000000008D
S214004E20000000000000000000000000000000007D
S214004E30000000000000000000000000000000006D
S214004E40000000000000000000000000000000005D
S214004E50000000000000000000000000000000004D
S214004E60000000000000000000000000000000003D
S214004E70000000000000000000000000000000002D
S214004E80000000000000000000000000000000001D
S214004E90000000000000000000000000000000000D
S214004EA000000000000000000000000000000000FD
S214004EB000000000000000000000000000000000ED
S214004EC000000000000000000000000000000000DD
S214004ED000000000000000000000000000000000CD
S214004EE000000000000000000000000000000000BD
S214004EF000000000000000000000000000000000AD
S214004F00000000000000000000000000000000009C
S214004F10000000000000000000000000000000008C
S214004F20000000000000000000000000000000007C
S214004F300000000000000000E4E8E4E8E4E8E4E83C
S214004F40E4E8000000000000000000000000000090
S214004F50000000000000000000000000000000004C
S214004F60000000000000000000000000000000003C
S214004F70000000000000000000000000000000002C
S214004F80000000000000000000000000000000001C
S214004F90000000000000000000000000000000000C
S214004FA000000000000000000000000000001C05DB
S214004FB01C051C051C051C051C051C051C051C05E4
S214004FC01C051C051C051C051C051C051C050000F5
S214004FD000000000000000000000000000000000CC
S214004FE000000000000000000000000000000000BC
S214004FF000000000000000000000000000000000AC
S214005000000000000000000000000000000000009B
S214005010000000000000000000000000000000008B
S214005020000000000000000000000000000000007B
S214005030000000000000000000000000000000006B
S214005040000000000000000000000000000000005B
S214005050000000000000000000000000000000004B
S214005060000000000000000000000000000000003B
S214005070000000000000000000000000000000002B
S214005080000000000000000000000000000000001B
S214005090000000000000000000000000000000000B
S2140050A000000000000000000000000000000000FB
S2140050B000000000000000000000000000000000EB
S2140050C000000000000000000000000000000000DB
S2140050D000000000000000000000000000000000CB
S2140050E000000000000000000000000000000000BB
S2140050F000000000000000000000000000000000AB
S214005100000000000000000000000000000000009A
S214005110000000000000000000000000000000008A
S214005120000000000000000000000000000000007A
S214005130000000000000000000000000000000006A
S214005140000000000000000000000000000000005A
S214005150000000000000000000000000000000004A
S214005160000000000000000000000000000000003A
S214005170000000000000000000000000000000002A
S214005180000000000000000000000000000000001A
S214005190000000000000000000000000000000000A
S2140051A000000000000000000000000000000000FA
S2140051B00000000000000000E4E8E4E8E4E8E4E8BA
S2140051C0E4E800000000000000000000000000000E
S2140051D000000000000000000000000000000000CA
S2140051E000000000000000000000000000000000BA
S2140051F000000000000000000000000000000000AA
S2140052000000000000000000000000000000000099
S2140052100000000000000000000000000000000089
S2140052200000000000000000000000000000000079
S2140052301C051C051C051C051C051C051C051C0561
S2140052401C051C051C051C051C051C050000000093
S2140052500000000000000000000000000000000049
S2140052600000000000000000000000000000000039
S2140052700000000000000000000000000000000029
S2140052800000000000000000000000000000000019
S2140052900000000000000000000000000000000009
S2140052A000000000000000000000000000000000F9
S2140052B000000000000000000000000000000000E9
S2140052C000000000000000000000000000000000D9
S2140052D000000000000000000000000000000000C9
S2140052E000000000000000000000000000000000B9
S2140052F000000000000000000000000000000000A9
S2140053000000000000000000000000000000000098
S2140053100000000000000000000000000000000088
S2140053200000000000000000000000000000000078
S2140053300000000000000000000000000000000068
S2140053400000000000000000000000000000000058
S2140053500000000000000000000000000000000048
S2140053600000000000000000000000000000000038
S2140053700000000000000000000000000000000028
S2140053800000000000000000000000000000000018
S2140053900000000000000000000000000000000008
S2140053A000000000000000000000000000000000F8
S2140053B000000000000000000000000000000000E8
S2140053C000000000000000000000000000000000D8
S2140053D000000000000000000000000000000000C8
S2140053E000000000000000000000000000000000B8
S2140053F000000000000000000000000000000000A8
S2140054000000000000000000000000000000000097
S2140054100000000000000000000000000000000087
S2140054200000000000000000000000000000000077
S2140054300000000000000000E4E8E4E8E4E8E4E837
S214005440E4E800000000000000000000000000008B
S2140054500000000000000000000000000000000047
S2140054600000000000000000000000000000000037
S2140054700000000000000000000000000000000027
S2140054800000000000000000000000000000000017
S2140054900000000000000000000000000000000007
S2140054A000000000000000000000000000000000F7
S2140054B000001C051C051C051C051C051C051C0500
S2140054C01C051C051C051C051C0500000000000032
S2140054D000000000000000000000000000000000C7
S2140054E000000000000000000000000000000000B7
S2140054F000000000000000000000000000000000A7
S2140055000000000000000000000000000000000096
S2140055100000000000000000000000000000000086
S2140055200000000000000000000000000000000076
S2140055300000000000000000000000000000000066
S2140055400000000000000000000000000000000056
S2140055500000000000000000000000000000000046
S2140055600000000000000000000000000000000036
S2140055700000000000000000000000000000000026
S2140055800000000000000000000000000000000016
S2140055900000000000000000000000000000000006
S2140055A000000000000000000000000000000000F6
S2140055B000000000000000000000000000000000E6
S2140055C000000000000000000000000000000000D6
S2140055D000000000000000000000000000000000C6
S2140055E000000000000000000000000000000000B6
S2140055F000000000000000000000000000000000A6
S2140056000000000000000000000000000000000095
S2140056100000000000000000000000000000000085
S2140056200000000000000000000000000000000075
S2140056300000000000000000000000000000000065
S2140056400000000000000000000000000000000055
S2140056500000000000000000000000000000000045
S2140056600000000000000000000000000000000035
S2140056700000000000000000000000000000000025
S2140056800000000000000000000000000000000015
S2140056900000000000000000000000000000000005
S2140056A000000000000000000000000000000000F5
S2140056B000000000000000000000E4E8E4E8E4E881
S2140056C000000000000000000000000000000000D5
S2140056D000000000000000000000000000000000C5
S2140056E000000000000000000000000000000000B5
S2140056F000000000000000000000000000000000A5
S2140057000000000000000000000000000000000094
S2140057100000000000000000000000000000000084
S2140057200000000000000000000000000000000074
S21400573000000000000000001C051C051C051C05E0
S2140057401C051C051C0500000000000000000000F1
S2140057500000000000000000000000000000000044
S2140057600000000000000000000000000000000034
S2140057700000000000000000000000000000000024
S2140057800000000000000000000000000000000014
S21400A3A00000000000000000FFFFFFFFFFFFFFFFB0
S21400A3B0FFFF00000000000000000000000000009A
S21400A3C00000000000000000000000000000000088
S21400A3D00000000000000000000000000000000078
S21400A3E00000000000000000000000000000000068
S21400A3F00000000000000000000000000000000058
S21400A4000000000000000000000000000000000047
S21400A4100000000000000000000000000000000037
S21400A4200000000000000000000000000000000027
S21400A4300000000000000000000000000000000017
S21400A4400000000000000000000000000000000007
S21400A45000000000000000000000000000000000F7
S21400A46000000000000000000000000000000000E7
S21400A47000000000000000000000000000000000D7
S21400A48000000000000000000000000000000000C7
S21400A49000000000000000000000000000000000B7
S21400A4A000000000000000000000000000000000A7
S21400A4B00000000000000000000000000000000097
S21400A4C00000000000000000000000000000000087
S21400A4D00000000000000000000000000000000077
S21400A4E00000000000000000000000000000000067
S21400A4F00000000000000000000000000000000057
S21400A5000000000000000000000000000000000046
S21400A5100000000000000000000000000000000036
S21400A5200000000000000000000000000000000026
S21400A5300000000000000000000000000000000016
S21400A5400000000000000000000000000000000006
S21400A55000000000000000000000000000000000F6
S21400A56000000000000000000000000000000000E6
S21400A57000000000000000000000000000000000D6
S21400A58000000000000000000000000000000000C6
S21400A59000000000000000000000000000000000B6
S21400A5A000000000000000000000000000000000A6
S21400A5B00000000000000000000000000000000096
S21400A5C0000000000000FFFFFFFFFFFF000000008C
S21400A5D00000000000000000000000000000000076
S21400A5E00000000000000000000000000000000066
S21400A5F00000000000000000000000000000000056
S21400A6000000000000000000000000000000000045
S21400A6100000000000000000000000000000000035
S21400A6200000000000000000FFFFFFFFFFFFFFFF2D
S21400A630FFFF000000000000000000000000000017
S21400A6400000000000000000000000000000000005
S21400A65000000000000000000000000000000000F5
S21400A66000000000000000000000000000000000E5
S21400A67000000000000000000000000000000000D5
S21400A68000000000000000000000000000000000C5
S21400A69000000000000000000000000000000000B5
S21400A6A000000000000000000000000000000000A5
S21400A6B00000000000000000000000000000000095
S21400A6C00000000000000000000000000000000085
S21400A6D00000000000000000000000000000000075
S21400A6E00000000000000000000000000000000065
S21400A6F00000000000000000000000000000000055
S21400A7000000000000000000000000000000000044
S21400A7100000000000000000000000000000000034
S21400A7200000000000000000000000000000000024
S21400A7300000000000000000000000000000000014
S21400A7400000000000000000000000000000000004
S21400A75000000000000000000000000000000000F4
S21400A76000000000000000000000000000000000E4
S21400A77000000000000000000000000000000000D4
S21400A78000000000000000000000000000000000C4
S21400A79000000000000000000000000000000000B4
S21400A7A000000000000000000000000000000000A4
S21400A7B00000000000000000000000000000000094
S21400A7C00000000000000000000000000000000084
S21400A7D00000000000000000000000000000000074
S21400A7E00000000000000000000000000000000064
S21400A7F00000000000000000000000000000000054
S21400A8000000000000000000000000000000000043
S21400A8100000000000000000000000000000000033
S21400A8200000000000000000000000000000000023
S21400A8300000000000000000000000000000000013
S21400A84000000000FFFFFFFFFFFFFFFFFFFF00000D
S21400A85000000000000000000000000000000000F3
S21400A86000000000000000000000000000000000E3
S21400A87000000000000000000000000000000000D3
S21400A88000000000000000000000000000000000C3
S21400A89000000000000000000000000000000000B3
S21400A8A00000000000000000FFFFFFFFFFFFFFFFAB
S21400A8B0FFFF000000000000000000000000000095
S21400A8C00000000000000000000000000000000083
S21400A8D00000000000000000000000000000000073
S21400A8E00000000000000000000000000000000063
S21400A8F00000000000000000000000000000000053
S21400A9000000000000000000000000000000000042
S21400A9100000000000000000000000000000000032
S21400A9200000000000000000000000000000000022
S21400A9300000000000000000000000000000000012
S21400A9400000000000000000000000000000000002
S21400A95000000000000000000000000000000000F2
S21400A96000000000000000000000000000000000E2
S21400A97000000000000000000000000000000000D2
S21400A98000000000000000000000000000000000C2
S21400A99000000000000000000000000000000000B2
S21400A9A000000000000000000000000000000000A2
S21400A9B00000000000000000000000000000000092
S21400A9C00000000000000000000000000000000082
S21400A9D00000000000000000000000000000000072
S21400A9E00000000000000000000000000000000062
S21400A9F00000000000000000000000000000000052
S21400AA000000000000000000000000000000000041
S21400AA100000000000000000000000000000000031
S21400AA200000000000000000000000000000000021
S21400AA300000000000000000000000000000000011
S21400AA400000000000000000000000000000000001
S21400AA5000000000000000000000000000000000F1
S21400AA6000000000000000000000000000000000E1
S21400AA7000000000000000000000000000000000D1
S21400AA8000000000000000000000000000000000C1
S21400AA9000000000000000000000000000000000B1
S21400AAA000000000000000000000000000000000A1
S21400AAB00000000000000000000000000000000091
S21400AAC000000000FFFFFFFFFFFFFFFFFFFF00008B
S21400AAD00000000000000000000000000000000071
S21400AAE00000000000000000000000000000000061
S21400AAF00000000000000000000000000000000051
S21400AB000000000000000000000000000000000040
S21400AB100000000000000000000000000000000030
S21400AB200000000000000000FFFFFFFFFFFFFFFF28
S21400AB30FFFF000000000000000000000000000012
S21400AB400000000000000000000000000000000000
S21400AB5000000000000000000000000000000000F0
S21400AB6000000000000000000000000000000000E0
S21400AB7000000000000000000000000000000000D0
S21400AB8000000000000000000000000000000000C0
S21400AB9000000000000000000000000000000000B0
S21400ABA000000000000000000000000000000000A0
S21400ABB00000000000000000000000000000000090
S21400ABC00000000000000000000000000000000080
S21400ABD00000000000000000000000000000000070
S21400ABE00000000000000000000000000000000060
S21400ABF00000000000000000000000000000000050
S21400AC00000000000000000000000000000000003F
S21400AC10000000000000000000000000000000002F
S21400AC20000000000000000000000000000000001F
S21400AC30000000000000000000000000000000000F
S21400AC4000000000000000000000000000000000FF
S21400AC5000000000000000000000000000000000EF
S21400AC6000000000000000000000000000000000DF
S21400AC7000000000000000000000000000000000CF
S21400AC8000000000000000000000000000000000BF
S21400AC9000000000000000000000000000000000AF
S21400ACA0000000000000000000000000000000009F
S21400ACB0000000000000000000000000000000008F
S21400ACC0000000000000000000000000000000007F
S21400ACD0000000000000000000000000000000006F
S21400ACE0000000000000000000000000000000005F
S21400ACF0000000000000000000000000000000004F
S21400AD00000000000000000000000000000000003E
S21400AD10000000000000000000000000000000002E
S21400AD20000000000000000000000000000000001E
S21400AD30000000000000000000000000000000000E
S21400AD4000000000FFFFFFFFFFFFFFFFFFFF000008
S21400AD5000000000000000000000000000000000EE
S21400AD6000000000000000000000000000000000DE
S21400AD7000000000000000000000000000000000CE
S21400AD8000000000000000000000000000000000BE
S21400AD9000000000000000000000000000000000AE
S21400ADA00000000000000000FFFFFFFFFFFFFFFFA6
S21400ADB0FFFF000000000000000000000000000090
S21400ADC0000000000000000000000000000000007E
S21400ADD0000000000000000000000000000000006E
S21400ADE0000000000000000000000000000000005E
S21400ADF0000000000000000000000000000000004E
S21400AE00000000000000000000000000000000003D
S21400AE10000000000000000000000000000000002D
S21400AE20000000000000000000000000000000001D
S21400AE30000000000000000000000000000000000D
S21400AE4000000000000000000000000000000000FD
S21400AE5000000000000000000000000000000000ED
S21400AE6000000000000000000000000000000000DD
S21400AE7000000000000000000000000000000000CD
S21400AE8000000000000000000000000000000000BD
S21400AE9000000000000000000000000000000000AD
S21400AEA0000000000000000000000000000000009D
S21400AEB0000000000000000000000000000000008D
S21400AEC0000000000000000000000000000000007D
S21400AED0000000000000000000000000000000006D
S21400AEE0000000000000000000000000000000005D
S21400AEF0000000000000000000000000000000004D
S21400AF00000000000000000000000000000000003C
S21400AF10000000000000000000000000000000002C
S21400AF20000000000000000000000000000000001C
S21400AF30000000000000000000000000000000000C
S21400AF4000000000000000000000000000000000FC
S21400AF5000000000000000000000000000000000EC
S21400AF6000000000000000000000000000000000DC
S21400AF7000000000000000000000000000000000CC
S21400AF8000000000000000000000000000000000BC
S21400AF9000000000000000000000000000000000AC
S21400AFA0000000000000000000000000000000009C
S21400AFB0000000000000000000000000000000008C
S21400AFC000000000FFFFFFFFFFFFFFFFFFFF000086
S21400AFD0000000000000000000000000000000006C
S21400AFE0000000000000000000000000000000005C
S21400AFF0000000000000000000000000000000004C
S21400B000000000000000000000000000000000003B
S21400B010000000000000000000000000000000002B
S21400B0200000000000000000FFFFFFFFFFFFFFFF23
S21400B030FFFF00000000000000000000000000000D
S21400B04000000000000000000000000000000000FB
S21400B05000000000000000000000000000000000EB
S21400B06000000000000000000000000000000000DB
S21400B07000000000000000000000000000000000CB
S21400B08000000000000000000000000000000000BB
S21400B09000000000000000000000000000000000AB
S21400B0A0000000000000000000000000000000009B
S21400B0B0000000000000000000000000000000008B
S21400B0C0000000000000000000000000000000007B
S21400B0D0000000000000000000000000000000006B
S21400B0E0000000000000000000000000000000005B
S21400B0F0000000000000000000000000000000004B
S21400B100000000000000000000000000000000003A
S21400B110000000000000000000000000000000002A
S21400B120000000000000000000000000000000001A
S21400B130000000000000000000000000000000000A
S21400B14000000000000000000000000000000000FA
S21400B15000000000000000000000000000000000EA
S21400B16000000000000000000000000000000000DA
S21400B17000000000000000000000000000000000CA
S21400B18000000000000000000000000000000000BA
S21400B19000000000000000000000000000000000AA
S21400B1A0000000000000000000000000000000009A
S21400B1B0000000000000000000000000000000008A
S21400B1C0000000000000000000000000000000007A
S21400B1D0000000000000000000000000000000006A
S21400B1E0000000000000000000000000000000005A
S21400B1F0000000000000000000000000000000004A
S21400B2000000000000000000000000000000000039
S21400B2100000000000000000000000000000000029
S21400B2200000000000000000000000000000000019
S21400B2300000000000000000000000000000000009
S21400B24000000000FFFFFFFFFFFFFFFFFFFF000003
S21400B25000000000000000000000000000000000E9
S21400B26000000000000000000000000000000000D9
S21400B27000000000000000000000000000000000C9
S21400B28000000000000000000000000000000000B9
S21400B29000000000000000000000000000000000A9
S21400B2A00000000000000000FFFFFFFFFFFFFFFFA1
S21400B2B0FFFF00000000000000000000000000008B
S21400B2C00000000000000000000000000000000079
S21400B2D00000000000000000000000000000000069
S21400B2E00000000000000000000000000000000059
S21400B2F00000000000000000000000000000000049
S21400B3000000000000000000000000000000000038
S21400B3100000000000000000000000000000000028
S21400B3200000000000000000000000000000000018
S21400B3300000000000000000000000000000000008
S21400B34000000000000000000000000000000000F8
S21400B35000000000000000000000000000000000E8
S21400B36000000000000000000000000000000000D8
S21400B37000000000000000000000000000000000C8
S21400B38000000000000000000000000000000000B8
S21400B39000000000000000000000000000000000A8
S21400B3A00000000000000000000000000000000098
S21400B3B00000000000000000000000000000000088
S21400B3C00000000000000000000000000000000078
S21400B3D00000000000000000000000000000000068
S21400B3E00000000000000000000000000000000058
S21400B3F00000000000000000000000000000000048
S21400B4000000000000000000000000000000000037
S21400B4100000000000000000000000000000000027
S21400B4200000000000000000000000000000000017
S21400B4300000000000000000000000000000000007
S21400B44000000000000000000000000000000000F7
S21400B45000000000000000000000000000000000E7
S21400B46000000000000000000000000000000000D7
S21400B47000000000000000000000000000000000C7
S21400B48000000000000000000000000000000000B7
S21400B49000000000000000000000000000000000A7
S21400B4A00000000000000000000000000000000097
S21400B4B00000000000000000000000000000000087
S21400B4C000000000FFFFFFFFFFFFFFFFFFFF000081
S21400B4D00000000000000000000000000000000067
S21400B4E00000000000000000000000000000000057
S21400B4F00000000000000000000000000000000047
S21400B5000000000000000000000000000000000036
S21400B5100000000000000000000000000000000026
S21400B5200000000000000000FFFFFFFFFFFFFFFF1E
S21400B530FFFF000000000000000000000000000008
S21400B54000000000000000000000000000000000F6
S21400B55000000000000000000000000000000000E6
S21400B56000000000000000000000000000000000D6
S21400B57000000000000000000000000000000000C6
S21400B58000000000000000000000000000000000B6
S21400B59000000000000000000000000000000000A6
S21400B5A00000000000000000000000000000000096
S21400B5B00000000000000000000000000000000086
S21400B5C00000000000000000000000000000000076
S21400B5D00000000000000000000000000000000066
S21400B5E00000000000000000000000000000000056
S21400B5F00000000000000000000000000000000046
S21400B6000000000000000000000000000000000035
S21400B6100000000000000000000000000000000025
S21400B6200000000000000000000000000000000015
S21400B6300000000000000000000000000000000005
S21400B64000000000000000000000000000000000F5
S21400B65000000000000000000000000000000000E5
S21400B66000000000000000000000000000000000D5
S21400B67000000000000000000000000000000000C5
S21400B68000000000000000000000000000000000B5
S21400B69000000000000000000000000000000000A5
S21400B6A00000000000000000000000000000000095
S21400B6B00000000000000000000000000000000085
S21400B6C00000000000000000000000000000000075
S21400B6D00000000000000000000000000000000065
S21400B6E00000000000000000000000000000000055
